{
  "_format": "hh-sol-artifact-1",
  "contractName": "MaticShiba",
  "sourceName": "contracts/MaticShiba.sol",
  "abi": [
    {
      "anonymous": false,
      "inputs": [
        {
          "indexed": true,
          "internalType": "address",
          "name": "owner",
          "type": "address"
        },
        {
          "indexed": true,
          "internalType": "address",
          "name": "spender",
          "type": "address"
        },
        {
          "indexed": false,
          "internalType": "uint256",
          "name": "value",
          "type": "uint256"
        }
      ],
      "name": "Approval",
      "type": "event"
    },
    {
      "anonymous": false,
      "inputs": [
        {
          "indexed": true,
          "internalType": "address",
          "name": "previousOwner",
          "type": "address"
        },
        {
          "indexed": true,
          "internalType": "address",
          "name": "newOwner",
          "type": "address"
        }
      ],
      "name": "OwnershipTransferred",
      "type": "event"
    },
    {
      "anonymous": false,
      "inputs": [
        {
          "indexed": true,
          "internalType": "address",
          "name": "from",
          "type": "address"
        },
        {
          "indexed": true,
          "internalType": "address",
          "name": "to",
          "type": "address"
        },
        {
          "indexed": false,
          "internalType": "uint256",
          "name": "value",
          "type": "uint256"
        }
      ],
      "name": "Transfer",
      "type": "event"
    },
    {
      "inputs": [
        {
          "internalType": "address",
          "name": "owner",
          "type": "address"
        },
        {
          "internalType": "address",
          "name": "spender",
          "type": "address"
        }
      ],
      "name": "allowance",
      "outputs": [
        {
          "internalType": "uint256",
          "name": "",
          "type": "uint256"
        }
      ],
      "stateMutability": "view",
      "type": "function"
    },
    {
      "inputs": [
        {
          "internalType": "address",
          "name": "spender",
          "type": "address"
        },
        {
          "internalType": "uint256",
          "name": "amount",
          "type": "uint256"
        }
      ],
      "name": "approve",
      "outputs": [
        {
          "internalType": "bool",
          "name": "",
          "type": "bool"
        }
      ],
      "stateMutability": "nonpayable",
      "type": "function"
    },
    {
      "inputs": [
        {
          "internalType": "address",
          "name": "account",
          "type": "address"
        }
      ],
      "name": "balanceOf",
      "outputs": [
        {
          "internalType": "uint256",
          "name": "",
          "type": "uint256"
        }
      ],
      "stateMutability": "view",
      "type": "function"
    },
    {
      "inputs": [],
      "name": "cap",
      "outputs": [
        {
          "internalType": "uint256",
          "name": "",
          "type": "uint256"
        }
      ],
      "stateMutability": "view",
      "type": "function"
    },
    {
      "inputs": [],
      "name": "decimals",
      "outputs": [
        {
          "internalType": "uint8",
          "name": "",
          "type": "uint8"
        }
      ],
      "stateMutability": "view",
      "type": "function"
    },
    {
      "inputs": [
        {
          "internalType": "address",
          "name": "spender",
          "type": "address"
        },
        {
          "internalType": "uint256",
          "name": "subtractedValue",
          "type": "uint256"
        }
      ],
      "name": "decreaseAllowance",
      "outputs": [
        {
          "internalType": "bool",
          "name": "",
          "type": "bool"
        }
      ],
      "stateMutability": "nonpayable",
      "type": "function"
    },
    {
      "inputs": [
        {
          "internalType": "address",
          "name": "spender",
          "type": "address"
        },
        {
          "internalType": "uint256",
          "name": "addedValue",
          "type": "uint256"
        }
      ],
      "name": "increaseAllowance",
      "outputs": [
        {
          "internalType": "bool",
          "name": "",
          "type": "bool"
        }
      ],
      "stateMutability": "nonpayable",
      "type": "function"
    },
    {
      "inputs": [],
      "name": "initialize",
      "outputs": [],
      "stateMutability": "nonpayable",
      "type": "function"
    },
    {
      "inputs": [],
      "name": "mint",
      "outputs": [],
      "stateMutability": "payable",
      "type": "function"
    },
    {
      "inputs": [],
      "name": "name",
      "outputs": [
        {
          "internalType": "string",
          "name": "",
          "type": "string"
        }
      ],
      "stateMutability": "view",
      "type": "function"
    },
    {
      "inputs": [],
      "name": "owner",
      "outputs": [
        {
          "internalType": "address",
          "name": "",
          "type": "address"
        }
      ],
      "stateMutability": "view",
      "type": "function"
    },
    {
      "inputs": [
        {
          "internalType": "address",
          "name": "to",
          "type": "address"
        },
        {
          "internalType": "uint256",
          "name": "amount",
          "type": "uint256"
        }
      ],
      "name": "privateMint",
      "outputs": [],
      "stateMutability": "nonpayable",
      "type": "function"
    },
    {
      "inputs": [],
      "name": "renounceOwnership",
      "outputs": [],
      "stateMutability": "nonpayable",
      "type": "function"
    },
    {
      "inputs": [],
      "name": "symbol",
      "outputs": [
        {
          "internalType": "string",
          "name": "",
          "type": "string"
        }
      ],
      "stateMutability": "view",
      "type": "function"
    },
    {
      "inputs": [],
      "name": "totalSupply",
      "outputs": [
        {
          "internalType": "uint256",
          "name": "",
          "type": "uint256"
        }
      ],
      "stateMutability": "view",
      "type": "function"
    },
    {
      "inputs": [
        {
          "internalType": "address",
          "name": "to",
          "type": "address"
        },
        {
          "internalType": "uint256",
          "name": "amount",
          "type": "uint256"
        }
      ],
      "name": "transfer",
      "outputs": [
        {
          "internalType": "bool",
          "name": "",
          "type": "bool"
        }
      ],
      "stateMutability": "nonpayable",
      "type": "function"
    },
    {
      "inputs": [
        {
          "internalType": "address",
          "name": "from",
          "type": "address"
        },
        {
          "internalType": "address",
          "name": "to",
          "type": "address"
        },
        {
          "internalType": "uint256",
          "name": "amount",
          "type": "uint256"
        }
      ],
      "name": "transferFrom",
      "outputs": [
        {
          "internalType": "bool",
          "name": "",
          "type": "bool"
        }
      ],
      "stateMutability": "nonpayable",
      "type": "function"
    },
    {
      "inputs": [
        {
          "internalType": "address",
          "name": "newOwner",
          "type": "address"
        }
      ],
      "name": "transferOwnership",
      "outputs": [],
      "stateMutability": "nonpayable",
      "type": "function"
    }
  ],
  "bytecode": "0x608060405234801561001057600080fd5b50612500806100206000396000f3fe6080604052600436106101095760003560e01c8063715018a611610095578063a457c2d711610064578063a457c2d71461033c578063a9059cbb14610379578063be62b3c1146103b6578063dd62ed3e146103df578063f2fde38b1461041c57610109565b8063715018a6146102b85780638129fc1c146102cf5780638da5cb5b146102e657806395d89b411461031157610109565b806323b872dd116100dc57806323b872dd146101ab578063313ce567146101e8578063355274ea14610213578063395093511461023e57806370a082311461027b57610109565b806306fdde031461010e578063095ea7b3146101395780631249c58b1461017657806318160ddd14610180575b600080fd5b34801561011a57600080fd5b50610123610445565b6040516101309190611b34565b60405180910390f35b34801561014557600080fd5b50610160600480360381019061015b9190611840565b6104d7565b60405161016d9190611b19565b60405180910390f35b61017e6104fa565b005b34801561018c57600080fd5b50610195610557565b6040516101a29190611d36565b60405180910390f35b3480156101b757600080fd5b506101d260048036038101906101cd91906117f1565b610561565b6040516101df9190611b19565b60405180910390f35b3480156101f457600080fd5b506101fd610590565b60405161020a9190611d51565b60405180910390f35b34801561021f57600080fd5b50610228610599565b6040516102359190611d36565b60405180910390f35b34801561024a57600080fd5b5061026560048036038101906102609190611840565b6105a3565b6040516102729190611b19565b60405180910390f35b34801561028757600080fd5b506102a2600480360381019061029d919061178c565b61064d565b6040516102af9190611d36565b60405180910390f35b3480156102c457600080fd5b506102cd610696565b005b3480156102db57600080fd5b506102e461071e565b005b3480156102f257600080fd5b506102fb6108ac565b6040516103089190611afe565b60405180910390f35b34801561031d57600080fd5b506103266108d6565b6040516103339190611b34565b60405180910390f35b34801561034857600080fd5b50610363600480360381019061035e9190611840565b610968565b6040516103709190611b19565b60405180910390f35b34801561038557600080fd5b506103a0600480360381019061039b9190611840565b610a52565b6040516103ad9190611b19565b60405180910390f35b3480156103c257600080fd5b506103dd60048036038101906103d89190611840565b610a75565b005b3480156103eb57600080fd5b50610406600480360381019061040191906117b5565b610aff565b6040516104139190611d36565b60405180910390f35b34801561042857600080fd5b50610443600480360381019061043e919061178c565b610b86565b005b60606036805461045490612031565b80601f016020809104026020016040519081016040528092919081815260200182805461048090612031565b80156104cd5780601f106104a2576101008083540402835291602001916104cd565b820191906000526020600020905b8154815290600101906020018083116104b057829003601f168201915b5050505050905090565b6000806104e2610c7e565b90506104ef818585610c86565b600191505092915050565b6000341161053d576040517f08c379a000000000000000000000000000000000000000000000000000000000815260040161053490611c16565b60405180910390fd5b61055533620f4240346105509190611f4f565b610e51565b565b6000603554905090565b60008061056c610c7e565b9050610579858285610ebb565b610584858585610f47565b60019150509392505050565b60006012905090565b6000606554905090565b6000806105ae610c7e565b9050610642818585603460008673ffffffffffffffffffffffffffffffffffffffff1673ffffffffffffffffffffffffffffffffffffffff16815260200190815260200160002060008973ffffffffffffffffffffffffffffffffffffffff1673ffffffffffffffffffffffffffffffffffffffff1681526020019081526020016000205461063d9190611d88565b610c86565b600191505092915050565b6000603360008373ffffffffffffffffffffffffffffffffffffffff1673ffffffffffffffffffffffffffffffffffffffff168152602001908152602001600020549050919050565b61069e610c7e565b73ffffffffffffffffffffffffffffffffffffffff166106bc6108ac565b73ffffffffffffffffffffffffffffffffffffffff1614610712576040517f08c379a000000000000000000000000000000000000000000000000000000000815260040161070990611c56565b60405180910390fd5b61071c60006111cb565b565b600060019054906101000a900460ff166107465760008054906101000a900460ff161561074f565b61074e611291565b5b61078e576040517f08c379a000000000000000000000000000000000000000000000000000000000815260040161078590611c36565b60405180910390fd5b60008060019054906101000a900460ff1615905080156107de576001600060016101000a81548160ff02191690831515021790555060016000806101000a81548160ff0219169083151502179055505b6108526040518060400160405280600a81526020017f4d617469635368696261000000000000000000000000000000000000000000008152506040518060400160405280600681526020017f4d534849424100000000000000000000000000000000000000000000000000008152506112a2565b61088061085d610590565b600a6108699190611e31565b6602185c62ffc48361087b9190611f4f565b6112ff565b61088861135a565b80156108a95760008060016101000a81548160ff0219169083151502179055505b50565b6000609860009054906101000a900473ffffffffffffffffffffffffffffffffffffffff16905090565b6060603780546108e590612031565b80601f016020809104026020016040519081016040528092919081815260200182805461091190612031565b801561095e5780601f106109335761010080835404028352916020019161095e565b820191906000526020600020905b81548152906001019060200180831161094157829003601f168201915b5050505050905090565b600080610973610c7e565b90506000603460008373ffffffffffffffffffffffffffffffffffffffff1673ffffffffffffffffffffffffffffffffffffffff16815260200190815260200160002060008673ffffffffffffffffffffffffffffffffffffffff1673ffffffffffffffffffffffffffffffffffffffff16815260200190815260200160002054905083811015610a39576040517f08c379a0000000000000000000000000000000000000000000000000000000008152600401610a3090611cf6565b60405180910390fd5b610a468286868403610c86565b60019250505092915050565b600080610a5d610c7e565b9050610a6a818585610f47565b600191505092915050565b610a7d610c7e565b73ffffffffffffffffffffffffffffffffffffffff16610a9b6108ac565b73ffffffffffffffffffffffffffffffffffffffff1614610af1576040517f08c379a0000000000000000000000000000000000000000000000000000000008152600401610ae890611c56565b60405180910390fd5b610afb8282610e51565b5050565b6000603460008473ffffffffffffffffffffffffffffffffffffffff1673ffffffffffffffffffffffffffffffffffffffff16815260200190815260200160002060008373ffffffffffffffffffffffffffffffffffffffff1673ffffffffffffffffffffffffffffffffffffffff16815260200190815260200160002054905092915050565b610b8e610c7e565b73ffffffffffffffffffffffffffffffffffffffff16610bac6108ac565b73ffffffffffffffffffffffffffffffffffffffff1614610c02576040517f08c379a0000000000000000000000000000000000000000000000000000000008152600401610bf990611c56565b60405180910390fd5b600073ffffffffffffffffffffffffffffffffffffffff168173ffffffffffffffffffffffffffffffffffffffff161415610c72576040517f08c379a0000000000000000000000000000000000000000000000000000000008152600401610c6990611b96565b60405180910390fd5b610c7b816111cb565b50565b600033905090565b600073ffffffffffffffffffffffffffffffffffffffff168373ffffffffffffffffffffffffffffffffffffffff161415610cf6576040517f08c379a0000000000000000000000000000000000000000000000000000000008152600401610ced90611cb6565b60405180910390fd5b600073ffffffffffffffffffffffffffffffffffffffff168273ffffffffffffffffffffffffffffffffffffffff161415610d66576040517f08c379a0000000000000000000000000000000000000000000000000000000008152600401610d5d90611bb6565b60405180910390fd5b80603460008573ffffffffffffffffffffffffffffffffffffffff1673ffffffffffffffffffffffffffffffffffffffff16815260200190815260200160002060008473ffffffffffffffffffffffffffffffffffffffff1673ffffffffffffffffffffffffffffffffffffffff168152602001908152602001600020819055508173ffffffffffffffffffffffffffffffffffffffff168373ffffffffffffffffffffffffffffffffffffffff167f8c5be1e5ebec7d5bd14f71427d1e84f3dd0314c0f7b2291e5b200ac8c7c3b92583604051610e449190611d36565b60405180910390a3505050565b610e59610599565b81610e62610557565b610e6c9190611d88565b1115610ead576040517f08c379a0000000000000000000000000000000000000000000000000000000008152600401610ea490611c96565b60405180910390fd5b610eb782826113b3565b5050565b6000610ec78484610aff565b90507fffffffffffffffffffffffffffffffffffffffffffffffffffffffffffffffff8114610f415781811015610f33576040517f08c379a0000000000000000000000000000000000000000000000000000000008152600401610f2a90611bd6565b60405180910390fd5b610f408484848403610c86565b5b50505050565b600073ffffffffffffffffffffffffffffffffffffffff168373ffffffffffffffffffffffffffffffffffffffff161415610fb7576040517f08c379a0000000000000000000000000000000000000000000000000000000008152600401610fae90611c76565b60405180910390fd5b600073ffffffffffffffffffffffffffffffffffffffff168273ffffffffffffffffffffffffffffffffffffffff161415611027576040517f08c379a000000000000000000000000000000000000000000000000000000000815260040161101e90611b56565b60405180910390fd5b611032838383611514565b6000603360008573ffffffffffffffffffffffffffffffffffffffff1673ffffffffffffffffffffffffffffffffffffffff168152602001908152602001600020549050818110156110b9576040517f08c379a00000000000000000000000000000000000000000000000000000000081526004016110b090611bf6565b60405180910390fd5b818103603360008673ffffffffffffffffffffffffffffffffffffffff1673ffffffffffffffffffffffffffffffffffffffff1681526020019081526020016000208190555081603360008573ffffffffffffffffffffffffffffffffffffffff1673ffffffffffffffffffffffffffffffffffffffff168152602001908152602001600020600082825461114e9190611d88565b925050819055508273ffffffffffffffffffffffffffffffffffffffff168473ffffffffffffffffffffffffffffffffffffffff167fddf252ad1be2c89b69c2b068fc378daa952ba7f163c4a11628f55a4df523b3ef846040516111b29190611d36565b60405180910390a36111c5848484611519565b50505050565b6000609860009054906101000a900473ffffffffffffffffffffffffffffffffffffffff16905081609860006101000a81548173ffffffffffffffffffffffffffffffffffffffff021916908373ffffffffffffffffffffffffffffffffffffffff1602179055508173ffffffffffffffffffffffffffffffffffffffff168173ffffffffffffffffffffffffffffffffffffffff167f8be0079c531659141344cd1fd0a4f28419497f9722a3daafe3b4186f6b6457e060405160405180910390a35050565b600061129c3061151e565b15905090565b600060019054906101000a900460ff166112f1576040517f08c379a00000000000000000000000000000000000000000000000000000000081526004016112e890611cd6565b60405180910390fd5b6112fb8282611541565b5050565b600060019054906101000a900460ff1661134e576040517f08c379a000000000000000000000000000000000000000000000000000000000815260040161134590611cd6565b60405180910390fd5b611357816115c2565b50565b600060019054906101000a900460ff166113a9576040517f08c379a00000000000000000000000000000000000000000000000000000000081526004016113a090611cd6565b60405180910390fd5b6113b161165e565b565b600073ffffffffffffffffffffffffffffffffffffffff168273ffffffffffffffffffffffffffffffffffffffff161415611423576040517f08c379a000000000000000000000000000000000000000000000000000000000815260040161141a90611d16565b60405180910390fd5b61142f60008383611514565b80603560008282546114419190611d88565b9250508190555080603360008473ffffffffffffffffffffffffffffffffffffffff1673ffffffffffffffffffffffffffffffffffffffff16815260200190815260200160002060008282546114979190611d88565b925050819055508173ffffffffffffffffffffffffffffffffffffffff16600073ffffffffffffffffffffffffffffffffffffffff167fddf252ad1be2c89b69c2b068fc378daa952ba7f163c4a11628f55a4df523b3ef836040516114fc9190611d36565b60405180910390a361151060008383611519565b5050565b505050565b505050565b6000808273ffffffffffffffffffffffffffffffffffffffff163b119050919050565b600060019054906101000a900460ff16611590576040517f08c379a000000000000000000000000000000000000000000000000000000000815260040161158790611cd6565b60405180910390fd5b81603690805190602001906115a69291906116bf565b5080603790805190602001906115bd9291906116bf565b505050565b600060019054906101000a900460ff16611611576040517f08c379a000000000000000000000000000000000000000000000000000000000815260040161160890611cd6565b60405180910390fd5b60008111611654576040517f08c379a000000000000000000000000000000000000000000000000000000000815260040161164b90611b76565b60405180910390fd5b8060658190555050565b600060019054906101000a900460ff166116ad576040517f08c379a00000000000000000000000000000000000000000000000000000000081526004016116a490611cd6565b60405180910390fd5b6116bd6116b8610c7e565b6111cb565b565b8280546116cb90612031565b90600052602060002090601f0160209004810192826116ed5760008555611734565b82601f1061170657805160ff1916838001178555611734565b82800160010185558215611734579182015b82811115611733578251825591602001919060010190611718565b5b5090506117419190611745565b5090565b5b8082111561175e576000816000905550600101611746565b5090565b6000813590506117718161249c565b92915050565b600081359050611786816124b3565b92915050565b60006020828403121561179e57600080fd5b60006117ac84828501611762565b91505092915050565b600080604083850312156117c857600080fd5b60006117d685828601611762565b92505060206117e785828601611762565b9150509250929050565b60008060006060848603121561180657600080fd5b600061181486828701611762565b935050602061182586828701611762565b925050604061183686828701611777565b9150509250925092565b6000806040838503121561185357600080fd5b600061186185828601611762565b925050602061187285828601611777565b9150509250929050565b61188581611fa9565b82525050565b61189481611fbb565b82525050565b60006118a582611d6c565b6118af8185611d77565b93506118bf818560208601611ffe565b6118c8816120c1565b840191505092915050565b60006118e0602383611d77565b91506118eb826120df565b604082019050919050565b6000611903601583611d77565b915061190e8261212e565b602082019050919050565b6000611926602683611d77565b915061193182612157565b604082019050919050565b6000611949602283611d77565b9150611954826121a6565b604082019050919050565b600061196c601d83611d77565b9150611977826121f5565b602082019050919050565b600061198f602683611d77565b915061199a8261221e565b604082019050919050565b60006119b2601983611d77565b91506119bd8261226d565b602082019050919050565b60006119d5602e83611d77565b91506119e082612296565b604082019050919050565b60006119f8602083611d77565b9150611a03826122e5565b602082019050919050565b6000611a1b602583611d77565b9150611a268261230e565b604082019050919050565b6000611a3e601983611d77565b9150611a498261235d565b602082019050919050565b6000611a61602483611d77565b9150611a6c82612386565b604082019050919050565b6000611a84602b83611d77565b9150611a8f826123d5565b604082019050919050565b6000611aa7602583611d77565b9150611ab282612424565b604082019050919050565b6000611aca601f83611d77565b9150611ad582612473565b602082019050919050565b611ae981611fe7565b82525050565b611af881611ff1565b82525050565b6000602082019050611b13600083018461187c565b92915050565b6000602082019050611b2e600083018461188b565b92915050565b60006020820190508181036000830152611b4e818461189a565b905092915050565b60006020820190508181036000830152611b6f816118d3565b9050919050565b60006020820190508181036000830152611b8f816118f6565b9050919050565b60006020820190508181036000830152611baf81611919565b9050919050565b60006020820190508181036000830152611bcf8161193c565b9050919050565b60006020820190508181036000830152611bef8161195f565b9050919050565b60006020820190508181036000830152611c0f81611982565b9050919050565b60006020820190508181036000830152611c2f816119a5565b9050919050565b60006020820190508181036000830152611c4f816119c8565b9050919050565b60006020820190508181036000830152611c6f816119eb565b9050919050565b60006020820190508181036000830152611c8f81611a0e565b9050919050565b60006020820190508181036000830152611caf81611a31565b9050919050565b60006020820190508181036000830152611ccf81611a54565b9050919050565b60006020820190508181036000830152611cef81611a77565b9050919050565b60006020820190508181036000830152611d0f81611a9a565b9050919050565b60006020820190508181036000830152611d2f81611abd565b9050919050565b6000602082019050611d4b6000830184611ae0565b92915050565b6000602082019050611d666000830184611aef565b92915050565b600081519050919050565b600082825260208201905092915050565b6000611d9382611fe7565b9150611d9e83611fe7565b9250827fffffffffffffffffffffffffffffffffffffffffffffffffffffffffffffffff03821115611dd357611dd2612063565b5b828201905092915050565b6000808291508390505b6001851115611e2857808604811115611e0457611e03612063565b5b6001851615611e135780820291505b8081029050611e21856120d2565b9450611de8565b94509492505050565b6000611e3c82611fe7565b9150611e4783611ff1565b9250611e747fffffffffffffffffffffffffffffffffffffffffffffffffffffffffffffffff8484611e7c565b905092915050565b600082611e8c5760019050611f48565b81611e9a5760009050611f48565b8160018114611eb05760028114611eba57611ee9565b6001915050611f48565b60ff841115611ecc57611ecb612063565b5b8360020a915084821115611ee357611ee2612063565b5b50611f48565b5060208310610133831016604e8410600b8410161715611f1e5782820a905083811115611f1957611f18612063565b5b611f48565b611f2b8484846001611dde565b92509050818404811115611f4257611f41612063565b5b81810290505b9392505050565b6000611f5a82611fe7565b9150611f6583611fe7565b9250817fffffffffffffffffffffffffffffffffffffffffffffffffffffffffffffffff0483118215151615611f9e57611f9d612063565b5b828202905092915050565b6000611fb482611fc7565b9050919050565b60008115159050919050565b600073ffffffffffffffffffffffffffffffffffffffff82169050919050565b6000819050919050565b600060ff82169050919050565b60005b8381101561201c578082015181840152602081019050612001565b8381111561202b576000848401525b50505050565b6000600282049050600182168061204957607f821691505b6020821081141561205d5761205c612092565b5b50919050565b7f4e487b7100000000000000000000000000000000000000000000000000000000600052601160045260246000fd5b7f4e487b7100000000000000000000000000000000000000000000000000000000600052602260045260246000fd5b6000601f19601f8301169050919050565b60008160011c9050919050565b7f45524332303a207472616e7366657220746f20746865207a65726f206164647260008201527f6573730000000000000000000000000000000000000000000000000000000000602082015250565b7f45524332304361707065643a2063617020697320300000000000000000000000600082015250565b7f4f776e61626c653a206e6577206f776e657220697320746865207a65726f206160008201527f6464726573730000000000000000000000000000000000000000000000000000602082015250565b7f45524332303a20617070726f766520746f20746865207a65726f20616464726560008201527f7373000000000000000000000000000000000000000000000000000000000000602082015250565b7f45524332303a20696e73756666696369656e7420616c6c6f77616e6365000000600082015250565b7f45524332303a207472616e7366657220616d6f756e742065786365656473206260008201527f616c616e63650000000000000000000000000000000000000000000000000000602082015250565b7f4d4154494320616d6f756e7420697320696e636f727265637400000000000000600082015250565b7f496e697469616c697a61626c653a20636f6e747261637420697320616c72656160008201527f647920696e697469616c697a6564000000000000000000000000000000000000602082015250565b7f4f776e61626c653a2063616c6c6572206973206e6f7420746865206f776e6572600082015250565b7f45524332303a207472616e736665722066726f6d20746865207a65726f20616460008201527f6472657373000000000000000000000000000000000000000000000000000000602082015250565b7f45524332304361707065643a2063617020657863656564656400000000000000600082015250565b7f45524332303a20617070726f76652066726f6d20746865207a65726f2061646460008201527f7265737300000000000000000000000000000000000000000000000000000000602082015250565b7f496e697469616c697a61626c653a20636f6e7472616374206973206e6f74206960008201527f6e697469616c697a696e67000000000000000000000000000000000000000000602082015250565b7f45524332303a2064656372656173656420616c6c6f77616e63652062656c6f7760008201527f207a65726f000000000000000000000000000000000000000000000000000000602082015250565b7f45524332303a206d696e7420746f20746865207a65726f206164647265737300600082015250565b6124a581611fa9565b81146124b057600080fd5b50565b6124bc81611fe7565b81146124c757600080fd5b5056fea2646970667358221220dca77650a9c6d40f581fceaea0939967a27439d78c5f1f4d90edf09a74b78a3764736f6c63430008030033",
  "linkReferences": {},
  "deployedLinkReferences": {}
}