{
  "_format": "hh-sol-artifact-1",
  "contractName": "Petrol",
  "sourceName": "contracts/Petrol.sol",
  "abi": [
    {
      "anonymous": false,
      "inputs": [
        {
          "indexed": true,
          "internalType": "address",
          "name": "owner",
          "type": "address"
        },
        {
          "indexed": true,
          "internalType": "address",
          "name": "spender",
          "type": "address"
        },
        {
          "indexed": false,
          "internalType": "uint256",
          "name": "value",
          "type": "uint256"
        }
      ],
      "name": "Approval",
      "type": "event"
    },
    {
      "anonymous": false,
      "inputs": [
        {
          "indexed": true,
          "internalType": "address",
          "name": "previousOwner",
          "type": "address"
        },
        {
          "indexed": true,
          "internalType": "address",
          "name": "newOwner",
          "type": "address"
        }
      ],
      "name": "OwnershipTransferred",
      "type": "event"
    },
    {
      "anonymous": false,
      "inputs": [
        {
          "indexed": true,
          "internalType": "address",
          "name": "from",
          "type": "address"
        },
        {
          "indexed": true,
          "internalType": "address",
          "name": "to",
          "type": "address"
        },
        {
          "indexed": false,
          "internalType": "uint256",
          "name": "value",
          "type": "uint256"
        }
      ],
      "name": "Transfer",
      "type": "event"
    },
    {
      "inputs": [
        {
          "internalType": "address",
          "name": "owner",
          "type": "address"
        },
        {
          "internalType": "address",
          "name": "spender",
          "type": "address"
        }
      ],
      "name": "allowance",
      "outputs": [
        {
          "internalType": "uint256",
          "name": "",
          "type": "uint256"
        }
      ],
      "stateMutability": "view",
      "type": "function"
    },
    {
      "inputs": [
        {
          "internalType": "address",
          "name": "spender",
          "type": "address"
        },
        {
          "internalType": "uint256",
          "name": "amount",
          "type": "uint256"
        }
      ],
      "name": "approve",
      "outputs": [
        {
          "internalType": "bool",
          "name": "",
          "type": "bool"
        }
      ],
      "stateMutability": "nonpayable",
      "type": "function"
    },
    {
      "inputs": [
        {
          "internalType": "address",
          "name": "account",
          "type": "address"
        }
      ],
      "name": "balanceOf",
      "outputs": [
        {
          "internalType": "uint256",
          "name": "",
          "type": "uint256"
        }
      ],
      "stateMutability": "view",
      "type": "function"
    },
    {
      "inputs": [],
      "name": "cap",
      "outputs": [
        {
          "internalType": "uint256",
          "name": "",
          "type": "uint256"
        }
      ],
      "stateMutability": "view",
      "type": "function"
    },
    {
      "inputs": [],
      "name": "claimPeriodEnds",
      "outputs": [
        {
          "internalType": "uint256",
          "name": "",
          "type": "uint256"
        }
      ],
      "stateMutability": "view",
      "type": "function"
    },
    {
      "inputs": [
        {
          "internalType": "address",
          "name": "adr",
          "type": "address"
        },
        {
          "internalType": "uint256",
          "name": "amount",
          "type": "uint256"
        }
      ],
      "name": "claimTokensForUser",
      "outputs": [],
      "stateMutability": "nonpayable",
      "type": "function"
    },
    {
      "inputs": [
        {
          "internalType": "address[]",
          "name": "adr",
          "type": "address[]"
        },
        {
          "internalType": "uint256[]",
          "name": "amount",
          "type": "uint256[]"
        }
      ],
      "name": "claimTokensForUsers",
      "outputs": [],
      "stateMutability": "nonpayable",
      "type": "function"
    },
    {
      "inputs": [],
      "name": "decimals",
      "outputs": [
        {
          "internalType": "uint8",
          "name": "",
          "type": "uint8"
        }
      ],
      "stateMutability": "view",
      "type": "function"
    },
    {
      "inputs": [
        {
          "internalType": "address",
          "name": "spender",
          "type": "address"
        },
        {
          "internalType": "uint256",
          "name": "subtractedValue",
          "type": "uint256"
        }
      ],
      "name": "decreaseAllowance",
      "outputs": [
        {
          "internalType": "bool",
          "name": "",
          "type": "bool"
        }
      ],
      "stateMutability": "nonpayable",
      "type": "function"
    },
    {
      "inputs": [
        {
          "internalType": "address",
          "name": "spender",
          "type": "address"
        },
        {
          "internalType": "uint256",
          "name": "addedValue",
          "type": "uint256"
        }
      ],
      "name": "increaseAllowance",
      "outputs": [
        {
          "internalType": "bool",
          "name": "",
          "type": "bool"
        }
      ],
      "stateMutability": "nonpayable",
      "type": "function"
    },
    {
      "inputs": [],
      "name": "initialize",
      "outputs": [],
      "stateMutability": "nonpayable",
      "type": "function"
    },
    {
      "inputs": [],
      "name": "merkleRoot",
      "outputs": [
        {
          "internalType": "bytes32",
          "name": "",
          "type": "bytes32"
        }
      ],
      "stateMutability": "view",
      "type": "function"
    },
    {
      "inputs": [
        {
          "internalType": "address",
          "name": "to",
          "type": "address"
        },
        {
          "internalType": "uint256",
          "name": "amount",
          "type": "uint256"
        }
      ],
      "name": "mint",
      "outputs": [],
      "stateMutability": "nonpayable",
      "type": "function"
    },
    {
      "inputs": [],
      "name": "name",
      "outputs": [
        {
          "internalType": "string",
          "name": "",
          "type": "string"
        }
      ],
      "stateMutability": "view",
      "type": "function"
    },
    {
      "inputs": [],
      "name": "owner",
      "outputs": [
        {
          "internalType": "address",
          "name": "",
          "type": "address"
        }
      ],
      "stateMutability": "view",
      "type": "function"
    },
    {
      "inputs": [],
      "name": "renounceOwnership",
      "outputs": [],
      "stateMutability": "nonpayable",
      "type": "function"
    },
    {
      "inputs": [],
      "name": "symbol",
      "outputs": [
        {
          "internalType": "string",
          "name": "",
          "type": "string"
        }
      ],
      "stateMutability": "view",
      "type": "function"
    },
    {
      "inputs": [],
      "name": "totalSupply",
      "outputs": [
        {
          "internalType": "uint256",
          "name": "",
          "type": "uint256"
        }
      ],
      "stateMutability": "view",
      "type": "function"
    },
    {
      "inputs": [
        {
          "internalType": "address",
          "name": "to",
          "type": "address"
        },
        {
          "internalType": "uint256",
          "name": "amount",
          "type": "uint256"
        }
      ],
      "name": "transfer",
      "outputs": [
        {
          "internalType": "bool",
          "name": "",
          "type": "bool"
        }
      ],
      "stateMutability": "nonpayable",
      "type": "function"
    },
    {
      "inputs": [
        {
          "internalType": "address",
          "name": "from",
          "type": "address"
        },
        {
          "internalType": "address",
          "name": "to",
          "type": "address"
        },
        {
          "internalType": "uint256",
          "name": "amount",
          "type": "uint256"
        }
      ],
      "name": "transferFrom",
      "outputs": [
        {
          "internalType": "bool",
          "name": "",
          "type": "bool"
        }
      ],
      "stateMutability": "nonpayable",
      "type": "function"
    },
    {
      "inputs": [
        {
          "internalType": "address",
          "name": "newOwner",
          "type": "address"
        }
      ],
      "name": "transferOwnership",
      "outputs": [],
      "stateMutability": "nonpayable",
      "type": "function"
    },
    {
      "inputs": [
        {
          "internalType": "address",
          "name": "adr",
          "type": "address"
        },
        {
          "internalType": "uint256",
          "name": "amount",
          "type": "uint256"
        }
      ],
      "name": "transferTokensToUser",
      "outputs": [],
      "stateMutability": "nonpayable",
      "type": "function"
    }
  ],
  "bytecode": "0x608060405234801561001057600080fd5b50612d5f806100206000396000f3fe608060405234801561001057600080fd5b50600436106101425760003560e01c806370a08231116100b8578063a457c2d71161007c578063a457c2d714610343578063a9059cbb14610373578063b2bae5e6146103a3578063dd62ed3e146103bf578063e42d0aac146103ef578063f2fde38b1461040b57610142565b806370a08231146102c3578063715018a6146102f35780638129fc1c146102fd5780638da5cb5b1461030757806395d89b411461032557610142565b8063313ce5671161010a578063313ce56714610201578063355274ea1461021f578063395093511461023d57806340c10f191461026d57806341b0fdfb1461028957806366deac47146102a557610142565b806306fdde0314610147578063095ea7b31461016557806318160ddd1461019557806323b872dd146101b35780632eb4a7ab146101e3575b600080fd5b61014f610427565b60405161015c919061221a565b60405180910390f35b61017f600480360381019061017a9190611e6d565b6104b9565b60405161018c91906121e4565b60405180910390f35b61019d6104dc565b6040516101aa919061243c565b60405180910390f35b6101cd60048036038101906101c89190611e1e565b6104e6565b6040516101da91906121e4565b60405180910390f35b6101eb610515565b6040516101f891906121ff565b60405180910390f35b61020961051b565b6040516102169190612457565b60405180910390f35b610227610524565b604051610234919061243c565b60405180910390f35b61025760048036038101906102529190611e6d565b61052e565b60405161026491906121e4565b60405180910390f35b61028760048036038101906102829190611e6d565b6105d8565b005b6102a3600480360381019061029e9190611ea9565b610662565b005b6102ad6108bd565b6040516102ba919061243c565b60405180910390f35b6102dd60048036038101906102d89190611db9565b6108c3565b6040516102ea919061243c565b60405180910390f35b6102fb61090c565b005b610305610994565b005b61030f610bec565b60405161031c91906121c9565b60405180910390f35b61032d610c16565b60405161033a919061221a565b60405180910390f35b61035d60048036038101906103589190611e6d565b610ca8565b60405161036a91906121e4565b60405180910390f35b61038d60048036038101906103889190611e6d565b610d92565b60405161039a91906121e4565b60405180910390f35b6103bd60048036038101906103b89190611e6d565b610db5565b005b6103d960048036038101906103d49190611de2565b610f25565b6040516103e6919061243c565b60405180910390f35b61040960048036038101906104049190611e6d565b610fac565b005b61042560048036038101906104209190611db9565b611087565b005b606060368054610436906127be565b80601f0160208091040260200160405190810160405280929190818152602001828054610462906127be565b80156104af5780601f10610484576101008083540402835291602001916104af565b820191906000526020600020905b81548152906001019060200180831161049257829003601f168201915b5050505050905090565b6000806104c461117f565b90506104d1818585611187565b600191505092915050565b6000603554905090565b6000806104f161117f565b90506104fe858285611352565b6105098585856113de565b60019150509392505050565b60ca5481565b60006012905090565b6000606554905090565b60008061053961117f565b90506105cd818585603460008673ffffffffffffffffffffffffffffffffffffffff1673ffffffffffffffffffffffffffffffffffffffff16815260200190815260200160002060008973ffffffffffffffffffffffffffffffffffffffff1673ffffffffffffffffffffffffffffffffffffffff168152602001908152602001600020546105c8919061250b565b611187565b600191505092915050565b6105e061117f565b73ffffffffffffffffffffffffffffffffffffffff166105fe610bec565b73ffffffffffffffffffffffffffffffffffffffff1614610654576040517f08c379a000000000000000000000000000000000000000000000000000000000815260040161064b9061233c565b60405180910390fd5b61065e8282611662565b5050565b61066a61117f565b73ffffffffffffffffffffffffffffffffffffffff16610688610bec565b73ffffffffffffffffffffffffffffffffffffffff16146106de576040517f08c379a00000000000000000000000000000000000000000000000000000000081526004016106d59061233c565b60405180910390fd5b60005b82518110156108b85760d06000848381518110610727577f4e487b7100000000000000000000000000000000000000000000000000000000600052603260045260246000fd5b602002602001015173ffffffffffffffffffffffffffffffffffffffff1673ffffffffffffffffffffffffffffffffffffffff16815260200190815260200160002060009054906101000a900460ff1615610781576108a5565b600160d060008584815181106107c0577f4e487b7100000000000000000000000000000000000000000000000000000000600052603260045260246000fd5b602002602001015173ffffffffffffffffffffffffffffffffffffffff1673ffffffffffffffffffffffffffffffffffffffff16815260200190815260200160002060006101000a81548160ff0219169083151502179055506108a430848381518110610856577f4e487b7100000000000000000000000000000000000000000000000000000000600052603260045260246000fd5b6020026020010151848481518110610897577f4e487b7100000000000000000000000000000000000000000000000000000000600052603260045260246000fd5b60200260200101516113de565b5b80806108b090612821565b9150506106e1565b505050565b60d15481565b6000603360008373ffffffffffffffffffffffffffffffffffffffff1673ffffffffffffffffffffffffffffffffffffffff168152602001908152602001600020549050919050565b61091461117f565b73ffffffffffffffffffffffffffffffffffffffff16610932610bec565b73ffffffffffffffffffffffffffffffffffffffff1614610988576040517f08c379a000000000000000000000000000000000000000000000000000000000815260040161097f9061233c565b60405180910390fd5b61099260006116cc565b565b600060019054906101000a900460ff166109bc5760008054906101000a900460ff16156109c5565b6109c4611792565b5b610a04576040517f08c379a00000000000000000000000000000000000000000000000000000000081526004016109fb9061231c565b60405180910390fd5b60008060019054906101000a900460ff161590508015610a54576001600060016101000a81548160ff02191690831515021790555060016000806101000a81548160ff0219169083151502179055505b610ac86040518060400160405280600681526020017f506574726f6c00000000000000000000000000000000000000000000000000008152506040518060400160405280600681526020017f504554524f4c00000000000000000000000000000000000000000000000000008152506117a3565b610af3610ad361051b565b600a610adf91906125b4565b631dcd6500610aee91906126d2565b611800565b610afb61185b565b610b0361051b565b600a610b0f91906125b4565b6318b4c4a0610b1e91906126d2565b60cb81905550610b2c61051b565b600a610b3891906125b4565b6305f5e100610b4791906126d2565b60cc81905550610b5561051b565b600a610b6191906125b4565b6305f5e100610b7091906126d2565b60cd81905550610b7e61051b565b600a610b8a91906125b4565b6305f5e100610b9991906126d2565b60ce81905550610ba761051b565b600a610bb391906125b4565b6302faf080610bc291906126d2565b60cf819055508015610be95760008060016101000a81548160ff0219169083151502179055505b50565b6000609860009054906101000a900473ffffffffffffffffffffffffffffffffffffffff16905090565b606060378054610c25906127be565b80601f0160208091040260200160405190810160405280929190818152602001828054610c51906127be565b8015610c9e5780601f10610c7357610100808354040283529160200191610c9e565b820191906000526020600020905b815481529060010190602001808311610c8157829003601f168201915b5050505050905090565b600080610cb361117f565b90506000603460008373ffffffffffffffffffffffffffffffffffffffff1673ffffffffffffffffffffffffffffffffffffffff16815260200190815260200160002060008673ffffffffffffffffffffffffffffffffffffffff1673ffffffffffffffffffffffffffffffffffffffff16815260200190815260200160002054905083811015610d79576040517f08c379a0000000000000000000000000000000000000000000000000000000008152600401610d70906123fc565b60405180910390fd5b610d868286868403611187565b60019250505092915050565b600080610d9d61117f565b9050610daa8185856113de565b600191505092915050565b610dbd61117f565b73ffffffffffffffffffffffffffffffffffffffff16610ddb610bec565b73ffffffffffffffffffffffffffffffffffffffff1614610e31576040517f08c379a0000000000000000000000000000000000000000000000000000000008152600401610e289061233c565b60405180910390fd5b60d060008373ffffffffffffffffffffffffffffffffffffffff1673ffffffffffffffffffffffffffffffffffffffff16815260200190815260200160002060009054906101000a900460ff1615610ebe576040517f08c379a0000000000000000000000000000000000000000000000000000000008152600401610eb59061235c565b60405180910390fd5b600160d060008473ffffffffffffffffffffffffffffffffffffffff1673ffffffffffffffffffffffffffffffffffffffff16815260200190815260200160002060006101000a81548160ff021916908315150217905550610f213083836113de565b5050565b6000603460008473ffffffffffffffffffffffffffffffffffffffff1673ffffffffffffffffffffffffffffffffffffffff16815260200190815260200160002060008373ffffffffffffffffffffffffffffffffffffffff1673ffffffffffffffffffffffffffffffffffffffff16815260200190815260200160002054905092915050565b73314ef52544c1d16a327dd631d2f9be6f85d5398a73ffffffffffffffffffffffffffffffffffffffff163373ffffffffffffffffffffffffffffffffffffffff161480611039575073b25801b5ab763a001e0d06b4cc7934144efce8cb73ffffffffffffffffffffffffffffffffffffffff163373ffffffffffffffffffffffffffffffffffffffff16145b611078576040517f08c379a000000000000000000000000000000000000000000000000000000000815260040161106f9061227c565b60405180910390fd5b6110833083836113de565b5050565b61108f61117f565b73ffffffffffffffffffffffffffffffffffffffff166110ad610bec565b73ffffffffffffffffffffffffffffffffffffffff1614611103576040517f08c379a00000000000000000000000000000000000000000000000000000000081526004016110fa9061233c565b60405180910390fd5b600073ffffffffffffffffffffffffffffffffffffffff168173ffffffffffffffffffffffffffffffffffffffff161415611173576040517f08c379a000000000000000000000000000000000000000000000000000000000815260040161116a9061229c565b60405180910390fd5b61117c816116cc565b50565b600033905090565b600073ffffffffffffffffffffffffffffffffffffffff168373ffffffffffffffffffffffffffffffffffffffff1614156111f7576040517f08c379a00000000000000000000000000000000000000000000000000000000081526004016111ee906123bc565b60405180910390fd5b600073ffffffffffffffffffffffffffffffffffffffff168273ffffffffffffffffffffffffffffffffffffffff161415611267576040517f08c379a000000000000000000000000000000000000000000000000000000000815260040161125e906122bc565b60405180910390fd5b80603460008573ffffffffffffffffffffffffffffffffffffffff1673ffffffffffffffffffffffffffffffffffffffff16815260200190815260200160002060008473ffffffffffffffffffffffffffffffffffffffff1673ffffffffffffffffffffffffffffffffffffffff168152602001908152602001600020819055508173ffffffffffffffffffffffffffffffffffffffff168373ffffffffffffffffffffffffffffffffffffffff167f8c5be1e5ebec7d5bd14f71427d1e84f3dd0314c0f7b2291e5b200ac8c7c3b92583604051611345919061243c565b60405180910390a3505050565b600061135e8484610f25565b90507fffffffffffffffffffffffffffffffffffffffffffffffffffffffffffffffff81146113d857818110156113ca576040517f08c379a00000000000000000000000000000000000000000000000000000000081526004016113c1906122dc565b60405180910390fd5b6113d78484848403611187565b5b50505050565b600073ffffffffffffffffffffffffffffffffffffffff168373ffffffffffffffffffffffffffffffffffffffff16141561144e576040517f08c379a00000000000000000000000000000000000000000000000000000000081526004016114459061237c565b60405180910390fd5b600073ffffffffffffffffffffffffffffffffffffffff168273ffffffffffffffffffffffffffffffffffffffff1614156114be576040517f08c379a00000000000000000000000000000000000000000000000000000000081526004016114b59061223c565b60405180910390fd5b6114c98383836118b4565b6000603360008573ffffffffffffffffffffffffffffffffffffffff1673ffffffffffffffffffffffffffffffffffffffff16815260200190815260200160002054905081811015611550576040517f08c379a0000000000000000000000000000000000000000000000000000000008152600401611547906122fc565b60405180910390fd5b818103603360008673ffffffffffffffffffffffffffffffffffffffff1673ffffffffffffffffffffffffffffffffffffffff1681526020019081526020016000208190555081603360008573ffffffffffffffffffffffffffffffffffffffff1673ffffffffffffffffffffffffffffffffffffffff16815260200190815260200160002060008282546115e5919061250b565b925050819055508273ffffffffffffffffffffffffffffffffffffffff168473ffffffffffffffffffffffffffffffffffffffff167fddf252ad1be2c89b69c2b068fc378daa952ba7f163c4a11628f55a4df523b3ef84604051611649919061243c565b60405180910390a361165c8484846118b9565b50505050565b61166a610524565b816116736104dc565b61167d919061250b565b11156116be576040517f08c379a00000000000000000000000000000000000000000000000000000000081526004016116b59061239c565b60405180910390fd5b6116c882826118be565b5050565b6000609860009054906101000a900473ffffffffffffffffffffffffffffffffffffffff16905081609860006101000a81548173ffffffffffffffffffffffffffffffffffffffff021916908373ffffffffffffffffffffffffffffffffffffffff1602179055508173ffffffffffffffffffffffffffffffffffffffff168173ffffffffffffffffffffffffffffffffffffffff167f8be0079c531659141344cd1fd0a4f28419497f9722a3daafe3b4186f6b6457e060405160405180910390a35050565b600061179d30611a1f565b15905090565b600060019054906101000a900460ff166117f2576040517f08c379a00000000000000000000000000000000000000000000000000000000081526004016117e9906123dc565b60405180910390fd5b6117fc8282611a42565b5050565b600060019054906101000a900460ff1661184f576040517f08c379a0000000000000000000000000000000000000000000000000000000008152600401611846906123dc565b60405180910390fd5b61185881611ac3565b50565b600060019054906101000a900460ff166118aa576040517f08c379a00000000000000000000000000000000000000000000000000000000081526004016118a1906123dc565b60405180910390fd5b6118b2611b5f565b565b505050565b505050565b600073ffffffffffffffffffffffffffffffffffffffff168273ffffffffffffffffffffffffffffffffffffffff16141561192e576040517f08c379a00000000000000000000000000000000000000000000000000000000081526004016119259061241c565b60405180910390fd5b61193a600083836118b4565b806035600082825461194c919061250b565b9250508190555080603360008473ffffffffffffffffffffffffffffffffffffffff1673ffffffffffffffffffffffffffffffffffffffff16815260200190815260200160002060008282546119a2919061250b565b925050819055508173ffffffffffffffffffffffffffffffffffffffff16600073ffffffffffffffffffffffffffffffffffffffff167fddf252ad1be2c89b69c2b068fc378daa952ba7f163c4a11628f55a4df523b3ef83604051611a07919061243c565b60405180910390a3611a1b600083836118b9565b5050565b6000808273ffffffffffffffffffffffffffffffffffffffff163b119050919050565b600060019054906101000a900460ff16611a91576040517f08c379a0000000000000000000000000000000000000000000000000000000008152600401611a88906123dc565b60405180910390fd5b8160369080519060200190611aa7929190611bc0565b508060379080519060200190611abe929190611bc0565b505050565b600060019054906101000a900460ff16611b12576040517f08c379a0000000000000000000000000000000000000000000000000000000008152600401611b09906123dc565b60405180910390fd5b60008111611b55576040517f08c379a0000000000000000000000000000000000000000000000000000000008152600401611b4c9061225c565b60405180910390fd5b8060658190555050565b600060019054906101000a900460ff16611bae576040517f08c379a0000000000000000000000000000000000000000000000000000000008152600401611ba5906123dc565b60405180910390fd5b611bbe611bb961117f565b6116cc565b565b828054611bcc906127be565b90600052602060002090601f016020900481019282611bee5760008555611c35565b82601f10611c0757805160ff1916838001178555611c35565b82800160010185558215611c35579182015b82811115611c34578251825591602001919060010190611c19565b5b509050611c429190611c46565b5090565b5b80821115611c5f576000816000905550600101611c47565b5090565b6000611c76611c7184612497565b612472565b90508083825260208201905082856020860282011115611c9557600080fd5b60005b85811015611cc55781611cab8882611d3b565b845260208401935060208301925050600181019050611c98565b5050509392505050565b6000611ce2611cdd846124c3565b612472565b90508083825260208201905082856020860282011115611d0157600080fd5b60005b85811015611d315781611d178882611da4565b845260208401935060208301925050600181019050611d04565b5050509392505050565b600081359050611d4a81612cfb565b92915050565b600082601f830112611d6157600080fd5b8135611d71848260208601611c63565b91505092915050565b600082601f830112611d8b57600080fd5b8135611d9b848260208601611ccf565b91505092915050565b600081359050611db381612d12565b92915050565b600060208284031215611dcb57600080fd5b6000611dd984828501611d3b565b91505092915050565b60008060408385031215611df557600080fd5b6000611e0385828601611d3b565b9250506020611e1485828601611d3b565b9150509250929050565b600080600060608486031215611e3357600080fd5b6000611e4186828701611d3b565b9350506020611e5286828701611d3b565b9250506040611e6386828701611da4565b9150509250925092565b60008060408385031215611e8057600080fd5b6000611e8e85828601611d3b565b9250506020611e9f85828601611da4565b9150509250929050565b60008060408385031215611ebc57600080fd5b600083013567ffffffffffffffff811115611ed657600080fd5b611ee285828601611d50565b925050602083013567ffffffffffffffff811115611eff57600080fd5b611f0b85828601611d7a565b9150509250929050565b611f1e8161272c565b82525050565b611f2d8161273e565b82525050565b611f3c8161274a565b82525050565b6000611f4d826124ef565b611f5781856124fa565b9350611f6781856020860161278b565b611f70816128f7565b840191505092915050565b6000611f886023836124fa565b9150611f9382612915565b604082019050919050565b6000611fab6015836124fa565b9150611fb682612964565b602082019050919050565b6000611fce6017836124fa565b9150611fd98261298d565b602082019050919050565b6000611ff16026836124fa565b9150611ffc826129b6565b604082019050919050565b60006120146022836124fa565b915061201f82612a05565b604082019050919050565b6000612037601d836124fa565b915061204282612a54565b602082019050919050565b600061205a6026836124fa565b915061206582612a7d565b604082019050919050565b600061207d602e836124fa565b915061208882612acc565b604082019050919050565b60006120a06020836124fa565b91506120ab82612b1b565b602082019050919050565b60006120c36017836124fa565b91506120ce82612b44565b602082019050919050565b60006120e66025836124fa565b91506120f182612b6d565b604082019050919050565b60006121096019836124fa565b915061211482612bbc565b602082019050919050565b600061212c6024836124fa565b915061213782612be5565b604082019050919050565b600061214f602b836124fa565b915061215a82612c34565b604082019050919050565b60006121726025836124fa565b915061217d82612c83565b604082019050919050565b6000612195601f836124fa565b91506121a082612cd2565b602082019050919050565b6121b481612774565b82525050565b6121c38161277e565b82525050565b60006020820190506121de6000830184611f15565b92915050565b60006020820190506121f96000830184611f24565b92915050565b60006020820190506122146000830184611f33565b92915050565b600060208201905081810360008301526122348184611f42565b905092915050565b6000602082019050818103600083015261225581611f7b565b9050919050565b6000602082019050818103600083015261227581611f9e565b9050919050565b6000602082019050818103600083015261229581611fc1565b9050919050565b600060208201905081810360008301526122b581611fe4565b9050919050565b600060208201905081810360008301526122d581612007565b9050919050565b600060208201905081810360008301526122f58161202a565b9050919050565b600060208201905081810360008301526123158161204d565b9050919050565b6000602082019050818103600083015261233581612070565b9050919050565b6000602082019050818103600083015261235581612093565b9050919050565b60006020820190508181036000830152612375816120b6565b9050919050565b60006020820190508181036000830152612395816120d9565b9050919050565b600060208201905081810360008301526123b5816120fc565b9050919050565b600060208201905081810360008301526123d58161211f565b9050919050565b600060208201905081810360008301526123f581612142565b9050919050565b6000602082019050818103600083015261241581612165565b9050919050565b6000602082019050818103600083015261243581612188565b9050919050565b600060208201905061245160008301846121ab565b92915050565b600060208201905061246c60008301846121ba565b92915050565b600061247c61248d565b905061248882826127f0565b919050565b6000604051905090565b600067ffffffffffffffff8211156124b2576124b16128c8565b5b602082029050602081019050919050565b600067ffffffffffffffff8211156124de576124dd6128c8565b5b602082029050602081019050919050565b600081519050919050565b600082825260208201905092915050565b600061251682612774565b915061252183612774565b9250827fffffffffffffffffffffffffffffffffffffffffffffffffffffffffffffffff038211156125565761255561286a565b5b828201905092915050565b6000808291508390505b60018511156125ab578086048111156125875761258661286a565b5b60018516156125965780820291505b80810290506125a485612908565b945061256b565b94509492505050565b60006125bf82612774565b91506125ca8361277e565b92506125f77fffffffffffffffffffffffffffffffffffffffffffffffffffffffffffffffff84846125ff565b905092915050565b60008261260f57600190506126cb565b8161261d57600090506126cb565b8160018114612633576002811461263d5761266c565b60019150506126cb565b60ff84111561264f5761264e61286a565b5b8360020a9150848211156126665761266561286a565b5b506126cb565b5060208310610133831016604e8410600b84101617156126a15782820a90508381111561269c5761269b61286a565b5b6126cb565b6126ae8484846001612561565b925090508184048111156126c5576126c461286a565b5b81810290505b9392505050565b60006126dd82612774565b91506126e883612774565b9250817fffffffffffffffffffffffffffffffffffffffffffffffffffffffffffffffff04831182151516156127215761272061286a565b5b828202905092915050565b600061273782612754565b9050919050565b60008115159050919050565b6000819050919050565b600073ffffffffffffffffffffffffffffffffffffffff82169050919050565b6000819050919050565b600060ff82169050919050565b60005b838110156127a957808201518184015260208101905061278e565b838111156127b8576000848401525b50505050565b600060028204905060018216806127d657607f821691505b602082108114156127ea576127e9612899565b5b50919050565b6127f9826128f7565b810181811067ffffffffffffffff82111715612818576128176128c8565b5b80604052505050565b600061282c82612774565b91507fffffffffffffffffffffffffffffffffffffffffffffffffffffffffffffffff82141561285f5761285e61286a565b5b600182019050919050565b7f4e487b7100000000000000000000000000000000000000000000000000000000600052601160045260246000fd5b7f4e487b7100000000000000000000000000000000000000000000000000000000600052602260045260246000fd5b7f4e487b7100000000000000000000000000000000000000000000000000000000600052604160045260246000fd5b6000601f19601f8301169050919050565b60008160011c9050919050565b7f45524332303a207472616e7366657220746f20746865207a65726f206164647260008201527f6573730000000000000000000000000000000000000000000000000000000000602082015250565b7f45524332304361707065643a2063617020697320300000000000000000000000600082015250565b7f596f7520617265206e6f7420617574686f72697a65642e000000000000000000600082015250565b7f4f776e61626c653a206e6577206f776e657220697320746865207a65726f206160008201527f6464726573730000000000000000000000000000000000000000000000000000602082015250565b7f45524332303a20617070726f766520746f20746865207a65726f20616464726560008201527f7373000000000000000000000000000000000000000000000000000000000000602082015250565b7f45524332303a20696e73756666696369656e7420616c6c6f77616e6365000000600082015250565b7f45524332303a207472616e7366657220616d6f756e742065786365656473206260008201527f616c616e63650000000000000000000000000000000000000000000000000000602082015250565b7f496e697469616c697a61626c653a20636f6e747261637420697320616c72656160008201527f647920696e697469616c697a6564000000000000000000000000000000000000602082015250565b7f4f776e61626c653a2063616c6c6572206973206e6f7420746865206f776e6572600082015250565b7f546f6b656e7320616c726561647920636c61696d65642e000000000000000000600082015250565b7f45524332303a207472616e736665722066726f6d20746865207a65726f20616460008201527f6472657373000000000000000000000000000000000000000000000000000000602082015250565b7f45524332304361707065643a2063617020657863656564656400000000000000600082015250565b7f45524332303a20617070726f76652066726f6d20746865207a65726f2061646460008201527f7265737300000000000000000000000000000000000000000000000000000000602082015250565b7f496e697469616c697a61626c653a20636f6e7472616374206973206e6f74206960008201527f6e697469616c697a696e67000000000000000000000000000000000000000000602082015250565b7f45524332303a2064656372656173656420616c6c6f77616e63652062656c6f7760008201527f207a65726f000000000000000000000000000000000000000000000000000000602082015250565b7f45524332303a206d696e7420746f20746865207a65726f206164647265737300600082015250565b612d048161272c565b8114612d0f57600080fd5b50565b612d1b81612774565b8114612d2657600080fd5b5056fea2646970667358221220e828446a73d4b29332eb7b7f095f0943b5d921f95b55bfef7a01ae9cab681a3064736f6c63430008030033",
  "linkReferences": {},
  "deployedLinkReferences": {}
}